:02000002B0004C
:1040000000400B00D2550B00000006000C0005021A
:084010000401B61400000000D9
:04401800D8520B006F
:10401C00034613F8012B002AFBD1181A01387047FC
:10402C0009480A49884208B505D0094A824202D09B
:10403C00121A01F099F80748074A0021121A01F0E8
:10404C00A1F8014808BD00BF38E6032038550B0025
:10405C00A4E60320A4E60320F0E7032070B5074E86
:10406C00074C00F03BFFA41BA4080025AC4200D178
:10407C0070BD56F8043B98470135F7E7F0540B0038
:10408C0014550B0000F013B808B500F01DF8BDE88E
:10409C00084000F0DBBE00F035BA00F03BBA007807
:1040AC00B0FA80F04009704701230370704708B5DF
:1040BC0000F0FAFD4FF4165100F0EAFDBDE808409F
:1040CC000121052000F07ABF70B50E2088B000F0F9
:1040DC0086FF244E244C30600028B8BF033080107B
:1040EC00C0F1FF00206000F0DFFD2049054604A868
:1040FC0000F0B1FC0A223168684600F0D2FC694637
:10410C0004A800F0F8FC0168284600F020FC684682
:10411C0000F056FC04A800F053FC00F0C5FD144957
:10412C00054604A800F097FC0A222168684600F0B6
:10413C00B8FC694604A800F0DEFC0168284600F0D3
:10414C0006FC684600F03CFC04A800F039FC216831
:10415C00052000F05BFF642008B0BDE8704000F063
:10416C00F9B900BFB4E60320B0E60320EC520B0013
:10417C00FB520B0010B5074B074A9A600024C3E9A9
:10418C000044032000F02AF921460120BDE810402C
:10419C0000F034B9A4E603200000FFFF08B5024B81
:1041AC001B685B6C019308BD4802030008B5024B09
:1041BC001B685B68019308BD1802030008B5024B2D
:1041CC001B685B69019308BD1802030008B5024B1C
:1041DC001B685B68019308BD2C02030008B5024BF9
:1041EC001B689B68019308BD2C02030008B5024BA9
:1041FC001B68DB68019308BD2C02030008B5024B59
:10420C001B689B6A019308BD2C02030008B5024B86
:10421C001B681B6B019308BD2C02030008B5024BF5
:10422C001B689B6F019308BD2C02030008B5024B61
:10423C001B681B6A019308BD2802030008B5024BDA
:10424C001B685B6A019308BD2802030008B5024B8A
:10425C001B689B6A019308BD2802030008B5024B3A
:10426C001B68DB6A019308BD2802030008B5024BEA
:10427C001B681B6B019308BD2802030008B5024B99
:10428C001B685B6B019308BD2802030008B5024B49
:10429C001B681B6C019308BD2802030008B5024B78
:1042AC001B685B69019308BD6402030008B5024BEF
:1042BC001B689B68019308BD6802030008B5024B9C
:1042CC001B68DB68019308BD6802030008B5024B4C
:1042DC001B68DB69019308BD3002030008B5024B73
:1042EC001B681B6A019308BD3002030008B5024B22
:1042FC001B68DB68019308BD3C02030008B5024B48
:10430C001B681B69019308BD3C02030008B5024BF6
:10431C001B685B69019308BD3C02030008B5024BA6
:10432C001B689B69019308BD3C02030008B5024B56
:10433C001B68DB69019308BD3C02030008B5024B06
:10434C001B681B6A019308BD3C02030008B5024BB5
:10435C001B689B6A019308BD3C02030008B5024B25
:10436C001B681B6C019308BD3C02030008B5024B93
:10437C001B681B68019308BD4C02030008B5024B77
:10438C001B685B68019308BD4C02030008B5024B27
:10439C001B681B69019308BD4C02030008B5024B56
:1043AC001B685B69019308BD4C02030008B5024B06
:1043BC001B689B69019308BD4C02030008B5024BB6
:1043CC001B68DB69019308BD4C02030008B5024B66
:1043DC001B681B6A019308BD4C02030008B5024B15
:1043EC001B685B68019308BD2002030008B5024BF3
:1043FC001B685B69019308BD2002030008B5024BE2
:10440C001B68DB6A019308BD2002030008B5034B4F
:10441C001B68D3F88830019308BD0000200203000C
:10442C0008B5034B1B68D3F89430019308BD00000A
:10443C002002030008B5024B1B68DB6B019308BD1F
:10444C004402030008B5024B1B685B68019308BD6E
:10445C004002030008B5024B1B689B68019308BD22
:10446C004002030008B5024B1B68DB68019308BDD2
:10447C004002030008B5024B1B681B69019308BD81
:10448C004002030008B5024B1B685B69019308BD31
:10449C004002030008B5024B1B689B69019308BDE1
:1044AC004002030008B5024B1B68DB69019308BD91
:1044BC004002030008B5024B1B681B6A019308BD40
:1044CC004002030008B5024B1B681B6B019308BD2F
:1044DC004002030008B5024B1B685B6B019308BDDF
:1044EC004002030008B5024B1B681B6C019308BD0E
:1044FC004002030008B5024B1B685B6C019308BDBE
:10450C004002030008B5024B1B681B68019308BDF1
:10451C001C02030008B5024B1B685B68019308BDC5
:10452C001C02030008B5024B1B689B68019308BD75
:10453C001C02030008B5024B1B681B6C019308BDE1
:10454C001C02030008B5024B1B685B6C019308BD91
:10455C001C0203000021FFF749BF000002480023A2
:10456C000360FFF71BBE00BFB8E6032000224068C3
:10457C001146FFF79FBF002240681146FFF7AABF04
:10458C0040680022FFF79EBF4068002281F00101C5
:10459C00FFF788BF002340681A461946FFF77ABF19
:1045AC00002340681A461946FFF76CBF002240688A
:1045BC001146FFF75FBF002240681146FFF74ABF64
:1045CC00406800220221FFF74DBF002340681A46C5
:1045DC00FFF738BF024B03225A60024A1A60704739
:1045EC00BCE6032014530B007047F8B5064615467D
:1045FC000C468F18BC4206D0336814F8011B9B681C
:10460C0030469847F6E72846F8BD007C0022FFF7B5
:10461C000DBE007C0021FFF711BE007C0021FFF7CE
:10462C0015BE007C0021FFF719BE007C0021FFF7AE
:10463C001DBE10B514210446FFF72FFD204610BDFA
:10464C0038B5044615464FF47A730022C4E90123A9
:10465C00094B2174084623602946FFF717FEBF302B
:10466C0008D16B69DB0705D56868FFF753FFE8686D
:10467C00FFF750FF204638BD50530B00704710B564
:10468C0018210446FFF709FD204610BDF0B5037D47
:10469C00062B8DB00E4600F104074FF0000412D02B
:1046AC0000F1080515F8011D0A22304600F059F9F1
:1046BC00AF42044419D0002CF4D02E21304600F027
:1046CC0037F90444EEE72F236A4639460A208DF861
:1046DC000040FFF7E3FD6846FFF79AFC336802469B
:1046EC00DB68694630469847044620460DB0F0BD5D
:1046FC0010B5054B0446112240F8043B002100F094
:10470C0041FD204610BD00BF78530B000346074AFD
:10471C0010B543F8042B01F1100251F8044B43F887
:10472C00044B9142F9D10A781A7010BD78530B00E2
:10473C0010B59DF8084044EA032343EA024242EADA
:10474C00016104234160037510BD000007B5064BE1
:10475C000360CB7800938B784A780978FFF7E8FFF1
:10476C0003B05DF804FB00BF78530B00014B024A09
:10477C001A607047C4E6032084530B000023406882
:10478C001A46FFF75FBE406800220221FFF76ABE9F
:10479C00002240681146FFF75DBE002240681146BA
:1047AC00FFF768BE002340681A461946FFF76ABE39
:1047BC00002340681A461946FFF76CBE406800217A
:1047CC00FFF790BE40680021FFF794BE40680022BE
:1047DC0081F00101FFF766BE40680022FFF772BE50
:1047EC00002240681146FFF775BE00224068114652
:1047FC00FFF760BE2DE9F04395B014460D46074611
:10480C00FFF776FF00211C220DA8009100F0BAFCE6
:10481C0040230C9320466B460CAA0021FFF74EFD5B
:10482C00044600284BD1024601216868FFF722FE9E
:10483C000221804622466868FFF71CFE009E8146D6
:10484C002146002E3BD0002939D17368022B03D0AE
:10485C000A2B11D0F669F4E7B8F1000FFAD07169A0
:10486C0006A8043107ADFFF771FF0FCD3C1D0FC437
:10487C002B6823704146EDE7B9F1000FEAD074695B
:10488C00102201A800F07EFC06238DF8143001AD37
:10489C0004F108031834186859682A4603C208330F
:1048AC00A3421546F7D101A906A807ADFFF72EFFC5
:1048BC000FCD3C1D0FC42B6823704946CAE70098E6
:1048CC00FFF7F4FC384615B0BDE8F083024B034A01
:1048DC001A6000225A607047C8E6032090530B0000
:1048EC00F8B506460D468F180024BD420CD033682F
:1048FC0015F8011B9B6830469847031E01DB1C44CE
:10490C00F3E7002C08BF1C462046F8BD13B504463F
:10491C00084659B10191FFF77BFB23680199DB68CD
:10492C000246204602B0BDE81040184702B010BD48
:10493C0003689B68184738B50D210546FFF7F8FF4B
:10494C000A2104462846FFF7F3FF204438BD38B54A
:10495C000546FFF7DBFF04462846FFF7ECFF204433
:10496C0038BD30B58BB00023012A8DF8243098BFA8
:10497C000A2209AC0D46B1FBF2F101FB125303F014
:10498C00FF03092B94BF30333733DBB2AA4204F850
:10499C00013DEFD92146FFF7B9FF0BB030BD000048
:1049AC00014B00229A607047D0E6032010B50446F4
:1049BC0008462170FFF78AFC00236360204610BD77
:1049CC0010B504460068FFF7A5FD204610BD10B5D4
:1049DC000446006808B1FFF79DFD0023C4E90133CC
:1049EC00236010BD38B504460D4600680131FFF751
:1049FC0099FD10B1C4E90005012038BD10B503685C
:104A0C00044623B143688B4201D3012010BD2046DC
:104A1C00FFF7E8FF0028F9D0A368002BF5D1226836
:104A2C001370F2E737B50D46114601920446FFF7B5
:104A3C00E5FF019A28B92046FFF7C9FF204603B0CD
:104A4C0030BDA2602946206800F08EFB2268A36866
:104A5C000021D154F2E7002313B5C0E9003304461A
:104A6C008360037341B108460191FFF7D1FA0199B4
:104A7C0002462046FFF7D6FF204602B010BD13B504
:104A8C00044659B108460191FFF7C2FA0199024652
:104A9C002046FFF7C7FF204602B010BDFFF797FF77
:104AAC00F9E710B504468AB00023C4E90033A360CB
:104ABC002373084601A900F091F901A92046FFF7DC
:104ACC00DEFF20460AB010BD70B505460E4609B98A
:104ADC00002070BD6AB1846814442146FFF78EFF34
:104AEC000028F5D02868AB683146184400F080FBEC
:104AFC00AC600120EDE710B58A6809680446FFF741
:104B0C00E3FF10B92046FFF762FF204610BD0000FE
:104B1C00054B02221A60054B054A9A600020C3E936
:104B2C000000FFF75BBC00BFECE60320E0E60320CF
:104B3C000000FFFF024B1A68024B1A60704700BF5F
:104B4C0038E60320F0E6032070474174704708B53F
:104B5C00007CFFF7FBFB20EAE07008BD08B5007C89
:104B6C00FFF7CCFB20EAE07008BD08B5007CFFF72E
:104B7C00D5FB40EAE07008BD08B5007CFFF7C6FB2A
:104B8C0040EAE07008BD007CFFF7D0BB37B5457C30
:104B9C0004462DB1207C03B0BDE83040FFF7A6BB26
:104BAC00007C0191FFF7D2FB00280199F2DC28462A
:104BBC0003B030BD10B514210446FFF76EFA204641
:104BCC0010BD000010B54FF47A7304460846114628
:104BDC000022C4E90123044B236001232074637475
:104BEC00FFF7BCFB204610BDE8530B004174704727
:104BFC007047704708B50021007CFFF7D7FB40EAEF
:104C0C00E07008BD08B50121007CFFF7CFFB40EA3E
:104C1C00E07008BD08B5007CFFF7C0FB20EAE0702F
:104C2C0008BD08B5007CFFF7B1FB20EAE07008BDB9
:104C3C0013B50446007C0191FFF7B0FB00280199E5
:104C4C0001DC607C20B1207CFFF7B8FB20EAE0702F
:104C5C0002B010BD007CFFF7B9BB10B5142104469F
:104C6C00FFF71BFA204610BD10B54FF47A730446BB
:104C7C0008460021C4E90113044B2360012320746E
:104C8C0063741146FFF772FB204610BD18540B00DD
:104C9C00007C0022FFF772BB10B5142204460021E1
:104CAC0000F070FA204610BD10B50F4C88B003A868
:104CBC00FFF7F2FF2178BFF35B8F11F001010FD1E9
:104CCC0020460191FFF7EBF9019948B103AA074877
:104CDC00FFF7CAFF2046FFF7E7F9054800F03EFA58
:104CEC00024808B010BD00BFF4E60320F8E603202C
:104CFC00FD4B0B00002240681146FFF7BBBB0022A6
:104D0C0040681146FFF7D6BB002240681146FFF7FA
:104D1C00E1BB40680022FFF7D5BB4068002281F060
:104D2C000101FFF7BFBB002340681A461946FFF785
:104D3C00B1BB002340681A461946FFF7A3BB0022FB
:104D4C0040681146FFF786BB406800220221FFF73E
:104D5C0089BB002340681A46FFF774BB024B042240
:104D6C005A60024A1A6070470CE7032048540B0043
:104D7C0010B50446FFF74CF901382318204683423E
:104D8C0006D90278197800F8011B03F80129F6E717
:104D9C0010BD70B50C46911E22291DD8254630B980
:104DAC00234430229D4210D205F8012BFAE7B0FBC8
:104DBC00F2F602FB1600C1B2092894BF303157310C
:104DCC00C9B205F8011B3046E9E7002320462B70D9
:104DDC00FFF7CEFF204670BD0020FCE738B5031E60
:104DEC000C4615460EDAB3F1004F4FF02D0214BFEE
:104DFC005842184601230A702A461944FFF7C9FF86
:104E0C00204638BD0123F9E7014B1860704700BFFD
:104E1C003CE6032008B50B4B43B1FFF745FF036895
:104E2C001B699847002801DDAFF30080064B43B1A6
:104E3C0000F06EF903681B699847002801DDAFF399
:104E4C00008008BD000000000000000008B5FFF75E
:104E5C00E1FFFFF7B3F9014B186008BD28E7032009
:104E6C000548064A064908B5121A00F07DF9054BAB
:104E7C00054A1A6008BD00BF00F4032004F40320A7
:104E8C00A4550B0000F403201E1C279A07B5002321
:104E9C0000931A466FF07701FFF7C2FA03B05DF882
:104EAC0004FB000007B543880A2B08D0502B0BD10C
:104EBC00094B1B684BB103B05DF804EB1847FFF7C7
:104ECC00E5FF03B05DF804FB002300931A466FF076
:104EDC007701FFF7A5FAF4E718E7032010B512489D
:104EEC000021FFF72FFB114B1A68114B9A42114B03
:104EFC000CBF012200221A7001D0FFF7B1FFFFF79F
:104F0C0055F9044600F046F90B4B13B12046AFF3AC
:104F1C00008000210848FFF78DFABDE810400748D3
:104F2C000021FFF773BA00BF154E0B0000F40320ED
:104F3C001E1C279A14E7032000000000B14E0B0042
:104F4C00232813B502D9002002B010BDA0F10B0329
:104F5C00022B1AD8174C2178BFF35B8F11F001018B
:104F6C000BD120460191FFF79AF8019928B112480C
:104F7C00FFF71CFD2046FFF797F80F4B1878FFF74B
:104F8C00ADF90028DFD10120DEE7012809D800F0B7
:104F9C007FF80021007CFFF771F980F00100C0B2AE
:104FAC00D2E709380128EED800F0B2F8007CFFF700
:104FBC00C5F9F2E71CE7032020E70320232838B5C6
:104FCC0004460D460AD8FF2908D0FFF7B9FF28B1CF
:104FDC0029462046BDE83840FFF700B938BD0D28FA
:104FEC0010B504469CBF0E34A4B22046FFF7A8FFB0
:104FFC0050B103212046FFF7E9F8032804D12046DD
:10500C00BDE81040FFF702B9002010BD38B50446CA
:10501C000D46FFF795FFF0B104212046FFF7D6F8B7
:10502C00042805D1A9B22046BDE83840FFF7E6B800
:10503C0002212046FFF7CAF802280CD12046FFF7C0
:10504C00D5F8012801D0042805D129462046BDE811
:10505C003840FFF7E3B838BD7047000038B50A4B4D
:10506C0003600123044643610849202000F074F8D2
:10507C00202560600549A560284600F06DF8C4E95C
:10508C000305204638BD00BF180001007C540B00FE
:10509C0030B50E4D2978BFF35B8F11F0010487B04A
:1050AC0011D12846FEF7FBFF68B16846FFF7D6FF23
:1050BC006A4621460648FFF7C3FA2846FEF7F4FF76
:1050CC00044800F04BF8024807B030BD2CE7032031
:1050DC0030E7032065500B007047000038B50446DC
:1050EC0014252A46002100F04DF82580402507495B
:1050FC0025812846258200F02FF804496060284657
:10510C0000F02AF8E060204638BD00BF7C540B004C
:10511C0030B50E4D2978BFF35B8F11F0010487B0C9
:10512C0011D12846FEF7BBFF68B101A8FFF7D6FFE7
:10513C0001AA21460648FFF745FD2846FEF7B4FFB5
:10514C00044800F00BF8024807B030BD44E70320D8
:10515C0048E70320E5500B00FEF79DBF00230146F6
:10516C001A46184600F04CB80A44914200F1FF333D
:10517C0000D1704710B511F8014B03F8014F914263
:10518C00F9D110BD02440346934200D1704703F895
:10519C00011BF9E738B5104B1D68AB6B0446B3B96E
:1051AC001820FFF7AFF90246A86320B90B4B0C4847
:1051BC004221FFF7BFF90B490B4BC0E900130B4B16
:1051CC0083600B23838100210120C2E90401AB6BB6
:1051DC0000221C615A6138BD3CE603207D540B0053
:1051EC0094540B000E33CDAB34126DE6ECDE05009F
:1051FC00034611F8012B03F8012B002AF9D1704753
:10520C002DE9F843DFF8B8800646D8F800001F46B1
:10521C000D46914600F056F8254B1C6834B9254CC8
:10522C001C60254B13B11B68C4F8883063681F2BB6
:10523C0007DDD8F8000000F047F84FF0FF30BDE86C
:10524C00F8834EB3D4F8880088B91C4B23B9D8F82E
:10525C00000000F038F8F0E74FF48470FFF752F9D3
:10526C000028F4D00023C0E94033C4F888006368F8
:10527C0040F8239001229A4000EB8301D0F80031D2
:10528C001343C0F80031022EC1F8807002BFD0F871
:10529C0004311343C0F804316368D8F800005A1C79
:1052AC000233626044F8235000F00EF80020C6E789
:1052BC00E8E703205CE703200000000011450B0029
:1052CC00A0E6032070477047704700002D400B008C
:1052DC0069400B0091400B0095400B000000000052
:1052EC0053656E736F722056616C75653A20004C75
:1052FC004544204272696768746E6573733A200086
:10530C000000000000000000D7450B00CD450B004D
:10531C00C3450B00B9450B00AD450B00A1450B0077
:10532C00C9470B00D1470B0095450B008D450B0071
:10533C0083450B0079450B0001480B000000000071
:10534C0000000000F5450B003F460B0017460B0014
:10535C00F7450B001F460B0027460B002F460B0092
:10536C0037460B00000000000000000099460B00BF
:10537C0089460B008B460B0061707000000000002A
:10538C000000000089470B0093470B009D470B0062
:10539C00A7470B00B1470B00BD470B00C9470B00DB
:1053AC00D1470B00D9470B00E5470B00ED470B002D
:1053BC00F7470B0001480B0025592D256D2D256451
:1053CC005425483A254D3A2553257A006173637468
:1053DC00696D65000000000000000000554B0B00DB
:1053EC00C14B0B00994B0B00ED480B00694B0B00AC
:1053FC00854B0B00774B0B00934B0B00574B0B0063
:10540C005B4B0B000000000000000000FF4B0B008A
:10541C00674C0B003D4C0B00ED480B002F4C0B0068
:10542C00014C0B00114C0B00614C0B00214C0B0080
:10543C00F94B0B0000000000000000005F4D0B005A
:10544C00554D0B004B4D0B00014D0B003F4D0B0010
:10545C00334D0B00C9470B00D1470B00274D0B00F8
:10546C001F4D0B00154D0B000B4D0B0001480B0095
:10547C00005245454E54206D616C6C6F6320737502
:10548C0063636565646564002F746D702F6A656E67
:10549C006B696E732D4743432D31302D70697065E8
:1054AC006C696E652D34385F3230323031313234C4
:1054BC005F313630363138303633392F7372632FD3
:1054CC006E65776C69622F6E65776C69622F6C699B
:1054DC0062632F7374646C69622F72616E642E63E5
:1054EC000000000081410B0069450B00E1450B00F9
:1054FC0079470B00D9480B00AD490B001D4B0B0035
:08550C00414B0B00694D0B003F
:10551400040000001400000003000000474E550082
:1055240091F1DF83A9C66B029A9DA27047E53DFE07
:04553400A888162D00
:10553800D8530B0040E603200000000000000000E4
:105548000000000000000000000000000000000053
:105558000000000000000000000000000000000043
:105568000000000000000000000000000000000033
:105578000000000000000000000000000000000023
:105588000000000000000000000000000000000013
:0C5598000000000000000000ECE7032011
:0455A4000000000003
:1055AE0000000102030405060708090A0B0C0D0E84
:1055BE000F101112131415161718191A1B1C1D1E75
:0455CE001F20280072
:0455D20078563412C1
:04000003B000401CED
:00000001FF
