:02000002B0004C
:1040000000400B00264F0B00000006000C000502CC
:084010000401B61400000000D9
:04401800744C0B00D9
:10401C00034613F8012B002AFBD1181A01387047FC
:10402C0009480A49884208B505D0094A824202D09B
:10403C00121A00F06FFD0748074A0021121A00F00F
:10404C0077FD014808BD00BF64E603208C4E0B00D1
:10405C00D0E60320D0E60320F0E7032070B5074E2E
:10406C00074C00F0DDFCA41BA4080025AC4200D1D9
:10407C0070BD56F8043B98470135F7E7444E0B00EA
:10408C00684E0B0000F013B808B500F011F8BDE84D
:10409C00084000F07DBC00F045B900F04BB9007849
:1040AC00B0FA80F0400970470123037070477047E5
:1040BC007047000010B5074B074A9A600024C3E90B
:1040CC000044032000F0A2F821460120BDE8104076
:1040DC0000F0A4B8D0E603200000FFFF08B5024BA7
:1040EC001B685B6C019308BD4802030008B5024BCA
:1040FC001B685B68019308BD1802030008B5024BEE
:10410C001B685B69019308BD1802030008B5024BDC
:10411C001B685B69019308BD6402030008B5024B80
:10412C001B689B68019308BD6802030008B5024B2D
:10413C001B68DB68019308BD6802030008B5024BDD
:10414C001B68DB68019308BD3C02030008B5024BF9
:10415C001B681B69019308BD3C02030008B5024BA8
:10416C001B685B69019308BD3C02030008B5024B58
:10417C001B689B69019308BD3C02030008B5024B08
:10418C001B68DB69019308BD3C02030008B5024BB8
:10419C001B689B6A019308BD3C02030008B5024BE7
:1041AC001B681B6C019308BD3C02030008B5024B55
:1041BC001B681B68019308BD4C02030008B5024B39
:1041CC001B681B69019308BD4C02030008B5024B28
:1041DC001B685B69019308BD4C02030008B5024BD8
:1041EC001B689B69019308BD4C02030008B5024B88
:1041FC001B68DB69019308BD4C02030008B5024B38
:10420C001B681B6A019308BD4C02030008B5024BE6
:10421C001B685B68019308BD2002030008B5024BC4
:10422C001B68DB6A019308BD2002030008B5034B31
:10423C001B68D3F88830019308BD000020020300EE
:10424C0008B5034B1B68D3F89430019308BD0000EC
:10425C002002030008B5024B1B68DB6B019308BD01
:10426C004402030008B5024B1B685B68019308BD50
:10427C004002030008B5024B1B689B68019308BD04
:10428C004002030008B5024B1B68DB68019308BDB4
:10429C004002030008B5024B1B681B69019308BD63
:1042AC004002030008B5024B1B685B69019308BD13
:1042BC004002030008B5024B1B689B69019308BDC3
:1042CC004002030008B5024B1B68DB69019308BD73
:1042DC004002030008B5024B1B681B6A019308BD22
:1042EC004002030008B5024B1B681B6B019308BD11
:1042FC004002030008B5024B1B685B6B019308BDC1
:10430C004002030008B5024B1B681B6C019308BDEF
:10431C004002030008B5024B1B685B6C019308BD9F
:10432C004002030008B5024B1B681B68019308BDD3
:10433C001C02030008B5024B1B685B68019308BDA7
:10434C001C02030008B5024B1B681B6C019308BDD3
:10435C001C02030008B5024B1B685B6C019308BD83
:10436C001C020300024800230360FFF7B7BE00BF26
:10437C00DCE60320002240681146FFF7ABBF0022A9
:10438C0040681146FFF7B6BF40680022FFF7AABF8E
:10439C004068002281F00101FFF794BF00234068C0
:1043AC001A461946FFF786BF002340681A4619467D
:1043BC00FFF778BF002240681146FFF76BBF002261
:1043CC0040681146FFF756BF406800220221FFF7F4
:1043DC0059BF002340681A46FFF744BF024B032223
:1043EC005A60024A1A607047E0E60320904C0B00BA
:1043FC00704710B518210446FFF74FFE204610BD3C
:10440C00F0B5037D062B8DB00E4600F104074FF07E
:10441C00000412D000F1080515F8011D0A223046DF
:10442C0000F043F9AF42044419D0002CF4D02E21F3
:10443C00304600F037F90444EEE72F236A4639463C
:10444C000A208DF80040FFF761FE6846FFF7E0FD9B
:10445C0033680246DB686946304698470446204676
:10446C000DB0F0BD10B5054B0446112240F8043BCD
:10447C00002100F05DFB204610BD00BFCC4C0B00B2
:10448C000346074A10B543F8042B01F1100251F80A
:10449C00044B43F8044B9142F9D10A781A7010BDC1
:1044AC00CC4C0B0010B59DF8084044EA032343EABA
:1044BC00024242EA016104234160037510BD000011
:1044CC0007B5064B0360CB7800938B784A78097854
:1044DC00FFF7E8FF03B05DF804FB00BFCC4C0B000A
:1044EC00014B024A1A607047E8E60320D84C0B00D7
:1044FC00002340681A46FFF7B5BE4068002202212F
:10450C00FFF7C0BE002240681146FFF7B3BE002281
:10451C0040681146FFF7BEBE002340681A46194694
:10452C00FFF7C0BE002340681A461946FFF7C2BE0B
:10453C0040680021FFF7E6BE40680021FFF7EABEA5
:10454C004068002281F00101FFF7BCBE40680022E8
:10455C00FFF7C8BE002240681146FFF7CBBE002211
:10456C0040681146FFF7B6BE2DE9F04395B01446EE
:10457C000D460746FFF776FF00211C220DA800917F
:10458C0000F0D6FA40230C9320466B460CAA00216F
:10459C00FFF7CCFD044600284BD102460121686888
:1045AC00FFF778FE0221804622466868FFF772FE0C
:1045BC00009E81462146002E3BD0002939D17368DC
:1045CC00022B03D00A2B11D0F669F4E7B8F1000FD7
:1045DC00FAD0716906A8043107ADFFF771FF0FCD52
:1045EC003C1D0FC42B6823704146EDE7B9F1000F59
:1045FC00EAD07469102201A800F09AFA06238DF80B
:10460C00143001AD04F108031834186859682A46AF
:10461C0003C20833A3421546F7D101A906A807AD7A
:10462C00FFF72EFF0FCD3C1D0FC42B68237049469E
:10463C00CAE70098FFF772FD384615B0BDE8F08365
:10464C00024B034A1A6000225A607047ECE60320C2
:10465C00E44C0B00F8B506460D468F180024BD42FD
:10466C000CD0336815F8011B9B6830469847031E25
:10467C0001DB1C44F3E7002C08BF1C462046F8BDA8
:10468C0013B50446084659B10191FFF7C1FC2368E4
:10469C000199DB680246204602B0BDE8104018477D
:1046AC0002B010BD03689B68184730B58BB000236F
:1046BC00012A8DF8243098BF0A2209AC0D46B1FBB3
:1046CC00F2F101FB125303F0FF03092B94BF3033BB
:1046DC003733DBB2AA4204F8013DEFD92146FFF78C
:1046EC00CFFF0BB030BD0000014B00229A60704729
:1046FC00F4E60320054B02221A60054B054A9A602A
:10470C000020C3E90000FFF781BD00BF10E70320C4
:10471C0004E703200000FFFF024B1A68024B1A60EB
:10472C00704700BF64E6032014E703207047417410
:10473C00704708B5007CFFF729FD20EAE07008BD42
:10474C0008B5007CFFF702FD20EAE07008BD08B553
:10475C00007CFFF70BFD40EAE07008BD08B5007C5B
:10476C00FFF7FCFC40EAE07008BD007CFFF706BDDB
:10477C0037B5457C04462DB1207C03B0BDE83040F4
:10478C00FFF7DCBC007C0191FFF700FD00280199CC
:10479C00F2DC284603B030BD10B514210446FFF7F7
:1047AC007CFC204610BD000010B54FF47A73044613
:1047BC00084611460022C4E90123044B236001235F
:1047CC0020746374FFF7EAFC204610BD3C4D0B00CF
:1047DC00417470477047704708B50021007CFFF7A3
:1047EC00FDFC40EAE07008BD08B50121007CFFF734
:1047FC00F5FC40EAE07008BD08B5007CFFF7E6FC6C
:10480C0020EAE07008BD08B5007CFFF7D7FC20EA71
:10481C00E07008BD13B50446007C0191FFF7D6FC8F
:10482C000028019901DC607C20B1207CFFF7DEFCC4
:10483C0020EAE07002B010BD007CFFF7DFBC10B5C1
:10484C0014210446FFF729FC204610BD10B54FF487
:10485C007A73044608460021C4E90113044B236013
:10486C000123207463741146FFF7A0FC204610BD91
:10487C006C4D0B0010B514220446002100F058F9C1
:10488C00204610BD10B50F4C88B003A8FFF7F2FFFF
:10489C002178BFF35B8F11F001010FD120460191FC
:1048AC00FFF7FDFB019948B103AA0748FFF7CEFFBC
:1048BC002046FFF7F9FB054800F026F9024808B03E
:1048CC0010BD00BF18E703201CE70320E1470B00D5
:1048DC00002240681146FFF7DDBC002240681146FB
:1048EC00FFF7F8BC002240681146FFF703BD406893
:1048FC000022FFF7F7BC4068002281F00101FFF7AE
:10490C00E1BC002340681A461946FFF7D3BC0023CC
:10491C0040681A461946FFF7C5BC0022406811468C
:10492C00FFF7A8BC406800220221FFF7ABBC0023B4
:10493C0040681A46FFF796BC024B04225A60024AA2
:10494C001A60704730E703209C4D0B00014B186038
:10495C00704700BF68E6032008B50B4B43B1FFF767
:10496C0091FF03681B699847002801DDAFF30080B5
:10497C00064B43B100F0A2F803681B699847002866
:10498C0001DDAFF3008008BD000000000000000056
:10499C0008B5FFF7E1FFFFF7B1FB014B186008BD4D
:1049AC0040E703200548064A064908B5121A00F0EC
:1049BC00B1F8054B054A1A6008BD00BF00F403208E
:1049CC0004F40320F84E0B0000F403201E1C279A5D
:1049DC0007B5002300931A466FF07701FFF730FC00
:1049EC0003B05DF804FB000007B543880A2B08D020
:1049FC00502B0BD1094B1B684BB103B05DF804EB8A
:104A0C001847FFF7E5FF03B05DF804FB00230093A4
:104A1C001A466FF07701FFF713FCF4E73CE703202D
:104A2C0010B512480021FFF795FC114B1A68114B79
:104A3C009A42114B0CBF012200221A7001D0FFF7D1
:104A4C00B1FFFFF753FB044600F07AF80B4B13B1A0
:104A5C002046AFF3008000210848FFF7FBFBBDE8C0
:104A6C00104007480021FFF7E1BB00BF59490B007C
:104A7C0000F403201E1C279A38E7032000000000D6
:104A8C00F5490B007047000038B5044614252A463A
:104A9C00002100F04DF82580402507492581284646
:104AAC00258200F02FF804496060284600F02AF8AF
:104ABC00E060204638BD00BFD04D0B0030B50E4D28
:104ACC002978BFF35B8F11F0010487B011D1284610
:104ADC00FFF7E5FA68B101A8FFF7D6FF01AA214656
:104AEC000648FFF761FE2846FFF7DEFA044800F09F
:104AFC000BF8024807B030BD44E7032048E7032019
:104B0C00914A0B00FFF7C7BA002301461A46184614
:104B1C0000F044B80A44914200F1FF3300D17047D1
:104B2C0010B511F8014B03F8014F9142F9D110BDAA
:104B3C0002440346934200D1704703F8011BF9E786
:104B4C0038B5104B1D68AB6B0446B3B91820FFF792
:104B5C00E9FB0246A86320B90B4B0C484221FFF736
:104B6C00F1FB0B490B4BC0E900130B4B83600B2380
:104B7C00838100210120C2E90401AB6B00221C617E
:104B8C005A6138BD68E60320D14D0B00E84D0B008F
:104B9C000E33CDAB34126DE6ECDE05002DE9F84397
:104BAC00DFF8B8800646D8F800001F460D4691463F
:104BBC0000F056F8254B1C6834B9254C1C60254B6D
:104BCC0013B11B68C4F8883063681F2B07DDD8F855
:104BDC00000000F047F84FF0FF30BDE8F8834EB30B
:104BEC00D4F8880088B91C4B23B9D8F8000000F021
:104BFC0038F8F0E74FF48470FFF794FB0028F4D0FA
:104C0C000023C0E94033C4F88800636840F823905F
:104C1C0001229A4000EB8301D0F800311343C0F815
:104C2C000031022EC1F8807002BFD0F8043113435A
:104C3C00C0F804316368D8F800005A1C0233626073
:104C4C0044F8235000F00EF80020C6E7E8E70320F4
:104C5C005CE703200000000031430B00CCE603208E
:104C6C0070477047704700002D400B0069400B00E7
:104C7C0091400B0095400B0000000000000000006C
:104C8C0000000000DF430B00D5430B00CB430B00AF
:104C9C00C1430B00B5430B00A9430B003D450B0072
:104CAC0045450B009D430B0095430B008B430B00BC
:104CBC0081430B0075450B00000000000000000054
:104CCC000D440B00FD430B00FF430B0061707000A3
:104CDC000000000000000000FD440B0007450B0025
:104CEC0011450B001B450B0025450B0031450B00F6
:104CFC003D450B0045450B004D450B0059450B0040
:104D0C0061450B006B450B0075450B0025592D2596
:104D1C006D2D25645425483A254D3A2553257A00A6
:104D2C0061736374696D6500000000000000000091
:104D3C0039470B00A5470B007D470B0061460B0064
:104D4C004D470B0069470B005B470B0077470B0087
:104D5C003B470B003F470B00000000000000000029
:104D6C00E3470B004B480B0021480B0061460B003E
:104D7C0013480B00E5470B00F5470B0045480B00AB
:104D8C0005480B00DD470B00000000000000000090
:104D9C003B490B0031490B0027490B00DD480B0048
:104DAC001B490B000F490B003D450B0045450B0003
:104DBC0003490B00FB480B00F1480B00E7480B00C4
:104DCC0075450B00005245454E54206D616C6C6F5F
:104DDC006320737563636565646564002F746D701F
:104DEC002F6A656E6B696E732D4743432D31302DE1
:104DFC00706970656C696E652D34385F3230323095
:104E0C00313132345F313630363138303633392F38
:104E1C007372632F6E65776C69622F6E65776C6940
:104E2C00622F6C6962632F7374646C69622F726198
:104E3C006E642E6300000000C1400B0071430B0038
:104E4C00E9430B00ED440B004D460B00F5460B00FF
:0C4E5C0001470B0025470B0045490B00E7
:104E6800040000001400000003000000474E550035
:104E78002B657FC78FB665182DB71D559578629B32
:044E88002DEB198570
:104E8C002C4D0B006CE6032000000000000000001D
:104E9C000000000000000000000000000000000006
:104EAC0000000000000000000000000000000000F6
:104EBC0000000000000000000000000000000000E6
:104ECC0000000000000000000000000000000000D6
:104EDC0000000000000000000000000000000000C6
:0C4EEC000000000000000000ECE70320C4
:044EF80000000000B6
:104F020000000102030405060708090A0B0C0D0E36
:104F12000F101112131415161718191A1B1C1D1E27
:044F22001F20280024
:044F26007856341273
:04000003B000401CED
:00000001FF
